{
  "contractName": "Dex",
  "abi": [
    {
      "anonymous": false,
      "inputs": [
        {
          "indexed": true,
          "internalType": "address",
          "name": "previousOwner",
          "type": "address"
        },
        {
          "indexed": true,
          "internalType": "address",
          "name": "newOwner",
          "type": "address"
        }
      ],
      "name": "OwnershipTransferred",
      "type": "event"
    },
    {
      "inputs": [
        {
          "internalType": "bytes32",
          "name": "ticker",
          "type": "bytes32"
        },
        {
          "internalType": "address",
          "name": "tokenAddress",
          "type": "address"
        }
      ],
      "name": "addToken",
      "outputs": [],
      "stateMutability": "nonpayable",
      "type": "function"
    },
    {
      "inputs": [
        {
          "internalType": "address",
          "name": "",
          "type": "address"
        },
        {
          "internalType": "bytes32",
          "name": "",
          "type": "bytes32"
        }
      ],
      "name": "balances",
      "outputs": [
        {
          "internalType": "uint256",
          "name": "",
          "type": "uint256"
        }
      ],
      "stateMutability": "view",
      "type": "function"
    },
    {
      "inputs": [
        {
          "internalType": "uint256",
          "name": "amount",
          "type": "uint256"
        },
        {
          "internalType": "bytes32",
          "name": "ticker",
          "type": "bytes32"
        }
      ],
      "name": "deposit",
      "outputs": [],
      "stateMutability": "nonpayable",
      "type": "function"
    },
    {
      "inputs": [
        {
          "internalType": "bytes32",
          "name": "",
          "type": "bytes32"
        },
        {
          "internalType": "uint256",
          "name": "",
          "type": "uint256"
        },
        {
          "internalType": "uint256",
          "name": "",
          "type": "uint256"
        }
      ],
      "name": "orderBook",
      "outputs": [
        {
          "internalType": "uint256",
          "name": "id",
          "type": "uint256"
        },
        {
          "internalType": "address",
          "name": "trader",
          "type": "address"
        },
        {
          "internalType": "bool",
          "name": "buyOrder",
          "type": "bool"
        },
        {
          "internalType": "bytes32",
          "name": "ticker",
          "type": "bytes32"
        },
        {
          "internalType": "uint256",
          "name": "amount",
          "type": "uint256"
        },
        {
          "internalType": "uint256",
          "name": "price",
          "type": "uint256"
        }
      ],
      "stateMutability": "view",
      "type": "function"
    },
    {
      "inputs": [],
      "name": "owner",
      "outputs": [
        {
          "internalType": "address",
          "name": "",
          "type": "address"
        }
      ],
      "stateMutability": "view",
      "type": "function"
    },
    {
      "inputs": [],
      "name": "renounceOwnership",
      "outputs": [],
      "stateMutability": "nonpayable",
      "type": "function"
    },
    {
      "inputs": [
        {
          "internalType": "uint256",
          "name": "",
          "type": "uint256"
        }
      ],
      "name": "tokenList",
      "outputs": [
        {
          "internalType": "bytes32",
          "name": "",
          "type": "bytes32"
        }
      ],
      "stateMutability": "view",
      "type": "function"
    },
    {
      "inputs": [
        {
          "internalType": "bytes32",
          "name": "",
          "type": "bytes32"
        }
      ],
      "name": "tokenMapping",
      "outputs": [
        {
          "internalType": "bytes32",
          "name": "ticker",
          "type": "bytes32"
        },
        {
          "internalType": "address",
          "name": "tokenAddress",
          "type": "address"
        }
      ],
      "stateMutability": "view",
      "type": "function"
    },
    {
      "inputs": [
        {
          "internalType": "address",
          "name": "newOwner",
          "type": "address"
        }
      ],
      "name": "transferOwnership",
      "outputs": [],
      "stateMutability": "nonpayable",
      "type": "function"
    },
    {
      "inputs": [
        {
          "internalType": "uint256",
          "name": "amount",
          "type": "uint256"
        },
        {
          "internalType": "bytes32",
          "name": "ticker",
          "type": "bytes32"
        }
      ],
      "name": "withdraw",
      "outputs": [],
      "stateMutability": "nonpayable",
      "type": "function"
    },
    {
      "inputs": [
        {
          "internalType": "uint256",
          "name": "amount",
          "type": "uint256"
        }
      ],
      "name": "withdrawEth",
      "outputs": [],
      "stateMutability": "nonpayable",
      "type": "function"
    },
    {
      "inputs": [
        {
          "internalType": "bytes32",
          "name": "ticker",
          "type": "bytes32"
        },
        {
          "internalType": "enum Dex.Side",
          "name": "side",
          "type": "uint8"
        }
      ],
      "name": "getOrderBook",
      "outputs": [
        {
          "components": [
            {
              "internalType": "uint256",
              "name": "id",
              "type": "uint256"
            },
            {
              "internalType": "address",
              "name": "trader",
              "type": "address"
            },
            {
              "internalType": "bool",
              "name": "buyOrder",
              "type": "bool"
            },
            {
              "internalType": "bytes32",
              "name": "ticker",
              "type": "bytes32"
            },
            {
              "internalType": "uint256",
              "name": "amount",
              "type": "uint256"
            },
            {
              "internalType": "uint256",
              "name": "price",
              "type": "uint256"
            }
          ],
          "internalType": "struct Dex.Order[]",
          "name": "",
          "type": "tuple[]"
        }
      ],
      "stateMutability": "view",
      "type": "function"
    }
  ],
  "bytecode": "0x608060405234801561001057600080fd5b5061002d61002261003260201b60201c565b61003a60201b60201c565b6100fe565b600033905090565b60008060009054906101000a900473ffffffffffffffffffffffffffffffffffffffff169050816000806101000a81548173ffffffffffffffffffffffffffffffffffffffff021916908373ffffffffffffffffffffffffffffffffffffffff1602179055508173ffffffffffffffffffffffffffffffffffffffff168173ffffffffffffffffffffffffffffffffffffffff167f8be0079c531659141344cd1fd0a4f28419497f9722a3daafe3b4186f6b6457e060405160405180910390a35050565b6118378061010d6000396000f3fe608060405234801561001057600080fd5b50600436106100b45760003560e01c80639ead7222116100715780639ead722214610193578063a8d2021a146101c3578063ba58ea68146101df578063c311d0491461020f578063c9630cb01461022b578063f2fde38b14610247576100b4565b80630bb431b6146100b95780631f14df69146100ee578063667cb4ba1461011e578063715018a61461014f5780638da5cb5b146101595780639776aacf14610177575b600080fd5b6100d360048036038101906100ce9190610f71565b610263565b6040516100e59695949392919061103e565b60405180910390f35b610108600480360381019061010391906110cb565b6102f6565b604051610115919061110b565b60405180910390f35b61013860048036038101906101339190611126565b61031b565b604051610146929190611153565b60405180910390f35b61015761035f565b005b6101616103e7565b60405161016e919061117c565b60405180910390f35b610191600480360381019061018c9190611197565b610410565b005b6101ad60048036038101906101a891906111d7565b61054b565b6040516101ba9190611204565b60405180910390f35b6101dd60048036038101906101d8919061121f565b61056f565b005b6101f960048036038101906101f49190611284565b61081a565b604051610206919061142a565b60405180910390f35b610229600480360381019061022491906111d7565b610949565b005b6102456004803603810190610240919061121f565b610af6565b005b610261600480360381019061025c919061144c565b610d10565b005b6004602052826000526040600020602052816000526040600020818154811061028b57600080fd5b906000526020600020906005020160009250925050508060000154908060010160009054906101000a900473ffffffffffffffffffffffffffffffffffffffff16908060010160149054906101000a900460ff16908060020154908060030154908060040154905086565b6003602052816000526040600020602052806000526040600020600091509150505481565b60016020528060005260406000206000915090508060000154908060010160009054906101000a900473ffffffffffffffffffffffffffffffffffffffff16905082565b610367610e08565b73ffffffffffffffffffffffffffffffffffffffff166103856103e7565b73ffffffffffffffffffffffffffffffffffffffff16146103db576040517f08c379a00000000000000000000000000000000000000000000000000000000081526004016103d2906114d6565b60405180910390fd5b6103e56000610e10565b565b60008060009054906101000a900473ffffffffffffffffffffffffffffffffffffffff16905090565b610418610e08565b73ffffffffffffffffffffffffffffffffffffffff166104366103e7565b73ffffffffffffffffffffffffffffffffffffffff161461048c576040517f08c379a0000000000000000000000000000000000000000000000000000000008152600401610483906114d6565b60405180910390fd5b60405180604001604052808381526020018273ffffffffffffffffffffffffffffffffffffffff16815250600160008481526020019081526020016000206000820151816000015560208201518160010160006101000a81548173ffffffffffffffffffffffffffffffffffffffff021916908373ffffffffffffffffffffffffffffffffffffffff16021790555090505060028290806001815401808255809150506001900390600052602060002001600090919091909150555050565b6002818154811061055b57600080fd5b906000526020600020016000915090505481565b80600073ffffffffffffffffffffffffffffffffffffffff166001600083815260200190815260200160002060010160009054906101000a900473ffffffffffffffffffffffffffffffffffffffff1673ffffffffffffffffffffffffffffffffffffffff161415610616576040517f08c379a000000000000000000000000000000000000000000000000000000000815260040161060d90611542565b60405180910390fd5b82600360003373ffffffffffffffffffffffffffffffffffffffff1673ffffffffffffffffffffffffffffffffffffffff16815260200190815260200160002060008481526020019081526020016000205410156106a9576040517f08c379a00000000000000000000000000000000000000000000000000000000081526004016106a0906115ae565b60405180910390fd5b61070c83600360003373ffffffffffffffffffffffffffffffffffffffff1673ffffffffffffffffffffffffffffffffffffffff168152602001908152602001600020600085815260200190815260200160002054610ed490919063ffffffff16565b600360003373ffffffffffffffffffffffffffffffffffffffff1673ffffffffffffffffffffffffffffffffffffffff1681526020019081526020016000206000848152602001908152602001600020819055506001600083815260200190815260200160002060010160009054906101000a900473ffffffffffffffffffffffffffffffffffffffff1673ffffffffffffffffffffffffffffffffffffffff1663a9059cbb33856040518363ffffffff1660e01b81526004016107d19291906115ce565b6020604051808303816000875af11580156107f0573d6000803e3d6000fd5b505050506040513d601f19601f820116820180604052508101906108149190611623565b50505050565b606060046000848152602001908152602001600020600083600181111561084457610843611650565b5b8152602001908152602001600020805480602002602001604051908101604052809291908181526020016000905b8282101561093d57838290600052602060002090600502016040518060c0016040529081600082015481526020016001820160009054906101000a900473ffffffffffffffffffffffffffffffffffffffff1673ffffffffffffffffffffffffffffffffffffffff1673ffffffffffffffffffffffffffffffffffffffff1681526020016001820160149054906101000a900460ff16151515158152602001600282015481526020016003820154815260200160048201548152505081526020019060010190610872565b50505050905092915050565b80600360003373ffffffffffffffffffffffffffffffffffffffff1673ffffffffffffffffffffffffffffffffffffffff16815260200190815260200160002060007f455448000000000000000000000000000000000000000000000000000000000081526020019081526020016000205410156109fc576040517f08c379a00000000000000000000000000000000000000000000000000000000081526004016109f3906115ae565b60405180910390fd5b610a7f81600360003373ffffffffffffffffffffffffffffffffffffffff1673ffffffffffffffffffffffffffffffffffffffff16815260200190815260200160002060007f4554480000000000000000000000000000000000000000000000000000000000815260200190815260200160002054610ed490919063ffffffff16565b600360003373ffffffffffffffffffffffffffffffffffffffff1673ffffffffffffffffffffffffffffffffffffffff16815260200190815260200160002060007f455448000000000000000000000000000000000000000000000000000000000081526020019081526020016000208190555050565b80600073ffffffffffffffffffffffffffffffffffffffff166001600083815260200190815260200160002060010160009054906101000a900473ffffffffffffffffffffffffffffffffffffffff1673ffffffffffffffffffffffffffffffffffffffff161415610b9d576040517f08c379a0000000000000000000000000000000000000000000000000000000008152600401610b9490611542565b60405180910390fd5b6001600083815260200190815260200160002060010160009054906101000a900473ffffffffffffffffffffffffffffffffffffffff1673ffffffffffffffffffffffffffffffffffffffff166323b872dd3330866040518463ffffffff1660e01b8152600401610c109392919061167f565b6020604051808303816000875af1158015610c2f573d6000803e3d6000fd5b505050506040513d601f19601f82011682018060405250810190610c539190611623565b50610cb783600360003373ffffffffffffffffffffffffffffffffffffffff1673ffffffffffffffffffffffffffffffffffffffff168152602001908152602001600020600085815260200190815260200160002054610eea90919063ffffffff16565b600360003373ffffffffffffffffffffffffffffffffffffffff1673ffffffffffffffffffffffffffffffffffffffff168152602001908152602001600020600084815260200190815260200160002081905550505050565b610d18610e08565b73ffffffffffffffffffffffffffffffffffffffff16610d366103e7565b73ffffffffffffffffffffffffffffffffffffffff1614610d8c576040517f08c379a0000000000000000000000000000000000000000000000000000000008152600401610d83906114d6565b60405180910390fd5b600073ffffffffffffffffffffffffffffffffffffffff168173ffffffffffffffffffffffffffffffffffffffff161415610dfc576040517f08c379a0000000000000000000000000000000000000000000000000000000008152600401610df390611728565b60405180910390fd5b610e0581610e10565b50565b600033905090565b60008060009054906101000a900473ffffffffffffffffffffffffffffffffffffffff169050816000806101000a81548173ffffffffffffffffffffffffffffffffffffffff021916908373ffffffffffffffffffffffffffffffffffffffff1602179055508173ffffffffffffffffffffffffffffffffffffffff168173ffffffffffffffffffffffffffffffffffffffff167f8be0079c531659141344cd1fd0a4f28419497f9722a3daafe3b4186f6b6457e060405160405180910390a35050565b60008183610ee29190611777565b905092915050565b60008183610ef891906117ab565b905092915050565b600080fd5b6000819050919050565b610f1881610f05565b8114610f2357600080fd5b50565b600081359050610f3581610f0f565b92915050565b6000819050919050565b610f4e81610f3b565b8114610f5957600080fd5b50565b600081359050610f6b81610f45565b92915050565b600080600060608486031215610f8a57610f89610f00565b5b6000610f9886828701610f26565b9350506020610fa986828701610f5c565b9250506040610fba86828701610f5c565b9150509250925092565b610fcd81610f3b565b82525050565b600073ffffffffffffffffffffffffffffffffffffffff82169050919050565b6000610ffe82610fd3565b9050919050565b61100e81610ff3565b82525050565b60008115159050919050565b61102981611014565b82525050565b61103881610f05565b82525050565b600060c0820190506110536000830189610fc4565b6110606020830188611005565b61106d6040830187611020565b61107a606083018661102f565b6110876080830185610fc4565b61109460a0830184610fc4565b979650505050505050565b6110a881610ff3565b81146110b357600080fd5b50565b6000813590506110c58161109f565b92915050565b600080604083850312156110e2576110e1610f00565b5b60006110f0858286016110b6565b925050602061110185828601610f26565b9150509250929050565b60006020820190506111206000830184610fc4565b92915050565b60006020828403121561113c5761113b610f00565b5b600061114a84828501610f26565b91505092915050565b6000604082019050611168600083018561102f565b6111756020830184611005565b9392505050565b60006020820190506111916000830184611005565b92915050565b600080604083850312156111ae576111ad610f00565b5b60006111bc85828601610f26565b92505060206111cd858286016110b6565b9150509250929050565b6000602082840312156111ed576111ec610f00565b5b60006111fb84828501610f5c565b91505092915050565b6000602082019050611219600083018461102f565b92915050565b6000806040838503121561123657611235610f00565b5b600061124485828601610f5c565b925050602061125585828601610f26565b9150509250929050565b6002811061126c57600080fd5b50565b60008135905061127e8161125f565b92915050565b6000806040838503121561129b5761129a610f00565b5b60006112a985828601610f26565b92505060206112ba8582860161126f565b9150509250929050565b600081519050919050565b600082825260208201905092915050565b6000819050602082019050919050565b6112f981610f3b565b82525050565b61130881610ff3565b82525050565b61131781611014565b82525050565b61132681610f05565b82525050565b60c08201600082015161134260008501826112f0565b50602082015161135560208501826112ff565b506040820151611368604085018261130e565b50606082015161137b606085018261131d565b50608082015161138e60808501826112f0565b5060a08201516113a160a08501826112f0565b50505050565b60006113b3838361132c565b60c08301905092915050565b6000602082019050919050565b60006113d7826112c4565b6113e181856112cf565b93506113ec836112e0565b8060005b8381101561141d57815161140488826113a7565b975061140f836113bf565b9250506001810190506113f0565b5085935050505092915050565b6000602082019050818103600083015261144481846113cc565b905092915050565b60006020828403121561146257611461610f00565b5b6000611470848285016110b6565b91505092915050565b600082825260208201905092915050565b7f4f776e61626c653a2063616c6c6572206973206e6f7420746865206f776e6572600082015250565b60006114c0602083611479565b91506114cb8261148a565b602082019050919050565b600060208201905081810360008301526114ef816114b3565b9050919050565b7f746f6b656e20646f6573206e6f74206578697374000000000000000000000000600082015250565b600061152c601483611479565b9150611537826114f6565b602082019050919050565b6000602082019050818103600083015261155b8161151f565b9050919050565b7f496e7375666669656e742062616c616e63650000000000000000000000000000600082015250565b6000611598601283611479565b91506115a382611562565b602082019050919050565b600060208201905081810360008301526115c78161158b565b9050919050565b60006040820190506115e36000830185611005565b6115f06020830184610fc4565b9392505050565b61160081611014565b811461160b57600080fd5b50565b60008151905061161d816115f7565b92915050565b60006020828403121561163957611638610f00565b5b60006116478482850161160e565b91505092915050565b7f4e487b7100000000000000000000000000000000000000000000000000000000600052602160045260246000fd5b60006060820190506116946000830186611005565b6116a16020830185611005565b6116ae6040830184610fc4565b949350505050565b7f4f776e61626c653a206e6577206f776e657220697320746865207a65726f206160008201527f6464726573730000000000000000000000000000000000000000000000000000602082015250565b6000611712602683611479565b915061171d826116b6565b604082019050919050565b6000602082019050818103600083015261174181611705565b9050919050565b7f4e487b7100000000000000000000000000000000000000000000000000000000600052601160045260246000fd5b600061178282610f3b565b915061178d83610f3b565b9250828210156117a05761179f611748565b5b828203905092915050565b60006117b682610f3b565b91506117c183610f3b565b9250827fffffffffffffffffffffffffffffffffffffffffffffffffffffffffffffffff038211156117f6576117f5611748565b5b82820190509291505056fea2646970667358221220b42979bc14fd83f0ac0e833849b9f2fdef485d9e6cfe3fb12bce79c2bde862f764736f6c634300080b0033",
  "immutableReferences": {},
  "source": "// SPDX-License-Identifier: MIT\r\npragma solidity >=0.6.0 <0.9.0;\r\npragma experimental ABIEncoderV2;\r\n\r\nimport \"./wallet.sol\";\r\n\r\ncontract Dex is Wallet {\r\n\r\n    enum Side {\r\n        BUY,\r\n        SELL\r\n    }\r\n\r\n    struct Order {\r\n        uint id;\r\n        address trader;\r\n        bool buyOrder;\r\n        bytes32 ticker;\r\n        uint amount;\r\n        uint price;\r\n    }\r\n\r\n    mapping(bytes32 => mapping(uint => Order[])) public orderBook;\r\n\r\n    function getOrderBook(bytes32 ticker, Side side) view public returns(Order[] memory){\r\n        return orderBook[ticker][uint(side)];\r\n    }\r\n\r\n    // function createLimitOrder(Side side, bytes32 ticker, uint amount, uint price) {\r\n\r\n    // }\r\n\r\n}",
  "sourcePath": "C:\\Users\\ivanb\\Documents\\eth-201\\Wallet\\contracts\\dex.sol",
  "compiler": {
    "name": "solc",
    "version": "0.8.11+commit.d7f03943.Emscripten.clang"
  },
  "schemaVersion": "3.4.4",
  "updatedAt": "2022-02-16T17:02:21.659Z",
  "devdoc": {
    "kind": "dev",
    "methods": {
      "owner()": {
        "details": "Returns the address of the current owner."
      },
      "renounceOwnership()": {
        "details": "Leaves the contract without owner. It will not be possible to call `onlyOwner` functions anymore. Can only be called by the current owner. NOTE: Renouncing ownership will leave the contract without an owner, thereby removing any functionality that is only available to the owner."
      },
      "transferOwnership(address)": {
        "details": "Transfers ownership of the contract to a new account (`newOwner`). Can only be called by the current owner."
      }
    },
    "version": 1
  },
  "userdoc": {
    "kind": "user",
    "methods": {},
    "version": 1
  }
}