{
  "contractName": "Wallet",
  "abi": [
    {
      "anonymous": false,
      "inputs": [
        {
          "indexed": true,
          "internalType": "address",
          "name": "previousOwner",
          "type": "address"
        },
        {
          "indexed": true,
          "internalType": "address",
          "name": "newOwner",
          "type": "address"
        }
      ],
      "name": "OwnershipTransferred",
      "type": "event"
    },
    {
      "inputs": [
        {
          "internalType": "address",
          "name": "",
          "type": "address"
        },
        {
          "internalType": "bytes32",
          "name": "",
          "type": "bytes32"
        }
      ],
      "name": "balances",
      "outputs": [
        {
          "internalType": "uint256",
          "name": "",
          "type": "uint256"
        }
      ],
      "stateMutability": "view",
      "type": "function",
      "constant": true
    },
    {
      "inputs": [],
      "name": "owner",
      "outputs": [
        {
          "internalType": "address",
          "name": "",
          "type": "address"
        }
      ],
      "stateMutability": "view",
      "type": "function",
      "constant": true
    },
    {
      "inputs": [],
      "name": "renounceOwnership",
      "outputs": [],
      "stateMutability": "nonpayable",
      "type": "function"
    },
    {
      "inputs": [
        {
          "internalType": "uint256",
          "name": "",
          "type": "uint256"
        }
      ],
      "name": "tokenList",
      "outputs": [
        {
          "internalType": "bytes32",
          "name": "",
          "type": "bytes32"
        }
      ],
      "stateMutability": "view",
      "type": "function",
      "constant": true
    },
    {
      "inputs": [
        {
          "internalType": "bytes32",
          "name": "",
          "type": "bytes32"
        }
      ],
      "name": "tokenMapping",
      "outputs": [
        {
          "internalType": "bytes32",
          "name": "ticker",
          "type": "bytes32"
        },
        {
          "internalType": "address",
          "name": "tokenAddress",
          "type": "address"
        }
      ],
      "stateMutability": "view",
      "type": "function",
      "constant": true
    },
    {
      "inputs": [
        {
          "internalType": "address",
          "name": "newOwner",
          "type": "address"
        }
      ],
      "name": "transferOwnership",
      "outputs": [],
      "stateMutability": "nonpayable",
      "type": "function"
    },
    {
      "inputs": [
        {
          "internalType": "bytes32",
          "name": "ticker",
          "type": "bytes32"
        },
        {
          "internalType": "address",
          "name": "tokenAddress",
          "type": "address"
        }
      ],
      "name": "addToken",
      "outputs": [],
      "stateMutability": "nonpayable",
      "type": "function"
    },
    {
      "inputs": [
        {
          "internalType": "uint256",
          "name": "amount",
          "type": "uint256"
        },
        {
          "internalType": "bytes32",
          "name": "ticker",
          "type": "bytes32"
        }
      ],
      "name": "deposit",
      "outputs": [],
      "stateMutability": "nonpayable",
      "type": "function"
    },
    {
      "inputs": [
        {
          "internalType": "uint256",
          "name": "amount",
          "type": "uint256"
        },
        {
          "internalType": "bytes32",
          "name": "ticker",
          "type": "bytes32"
        }
      ],
      "name": "withdraw",
      "outputs": [],
      "stateMutability": "nonpayable",
      "type": "function"
    },
    {
      "inputs": [
        {
          "internalType": "uint256",
          "name": "amount",
          "type": "uint256"
        }
      ],
      "name": "withdrawEth",
      "outputs": [],
      "stateMutability": "nonpayable",
      "type": "function"
    }
  ],
  "bytecode": "0x608060405234801561001057600080fd5b5061002d61002261003260201b60201c565b61003a60201b60201c565b6100fe565b600033905090565b60008060009054906101000a900473ffffffffffffffffffffffffffffffffffffffff169050816000806101000a81548173ffffffffffffffffffffffffffffffffffffffff021916908373ffffffffffffffffffffffffffffffffffffffff1602179055508173ffffffffffffffffffffffffffffffffffffffff168173ffffffffffffffffffffffffffffffffffffffff167f8be0079c531659141344cd1fd0a4f28419497f9722a3daafe3b4186f6b6457e060405160405180910390a35050565b61131b8061010d6000396000f3fe608060405234801561001057600080fd5b506004361061009e5760003560e01c80639ead7222116100665780639ead722214610148578063a8d2021a14610178578063c311d04914610194578063c9630cb0146101b0578063f2fde38b146101cc5761009e565b80631f14df69146100a3578063667cb4ba146100d3578063715018a6146101045780638da5cb5b1461010e5780639776aacf1461012c575b600080fd5b6100bd60048036038101906100b89190610d5c565b6101e8565b6040516100ca9190610db5565b60405180910390f35b6100ed60048036038101906100e89190610dd0565b61020d565b6040516100fb929190610e1b565b60405180910390f35b61010c610251565b005b6101166102d9565b6040516101239190610e44565b60405180910390f35b61014660048036038101906101419190610e5f565b610302565b005b610162600480360381019061015d9190610ecb565b61043d565b60405161016f9190610ef8565b60405180910390f35b610192600480360381019061018d9190610f13565b610461565b005b6101ae60048036038101906101a99190610ecb565b61070c565b005b6101ca60048036038101906101c59190610f13565b6108b9565b005b6101e660048036038101906101e19190610f53565b610ad3565b005b6003602052816000526040600020602052806000526040600020600091509150505481565b60016020528060005260406000206000915090508060000154908060010160009054906101000a900473ffffffffffffffffffffffffffffffffffffffff16905082565b610259610bcb565b73ffffffffffffffffffffffffffffffffffffffff166102776102d9565b73ffffffffffffffffffffffffffffffffffffffff16146102cd576040517f08c379a00000000000000000000000000000000000000000000000000000000081526004016102c490610fdd565b60405180910390fd5b6102d76000610bd3565b565b60008060009054906101000a900473ffffffffffffffffffffffffffffffffffffffff16905090565b61030a610bcb565b73ffffffffffffffffffffffffffffffffffffffff166103286102d9565b73ffffffffffffffffffffffffffffffffffffffff161461037e576040517f08c379a000000000000000000000000000000000000000000000000000000000815260040161037590610fdd565b60405180910390fd5b60405180604001604052808381526020018273ffffffffffffffffffffffffffffffffffffffff16815250600160008481526020019081526020016000206000820151816000015560208201518160010160006101000a81548173ffffffffffffffffffffffffffffffffffffffff021916908373ffffffffffffffffffffffffffffffffffffffff16021790555090505060028290806001815401808255809150506001900390600052602060002001600090919091909150555050565b6002818154811061044d57600080fd5b906000526020600020016000915090505481565b80600073ffffffffffffffffffffffffffffffffffffffff166001600083815260200190815260200160002060010160009054906101000a900473ffffffffffffffffffffffffffffffffffffffff1673ffffffffffffffffffffffffffffffffffffffff161415610508576040517f08c379a00000000000000000000000000000000000000000000000000000000081526004016104ff90611049565b60405180910390fd5b82600360003373ffffffffffffffffffffffffffffffffffffffff1673ffffffffffffffffffffffffffffffffffffffff168152602001908152602001600020600084815260200190815260200160002054101561059b576040517f08c379a0000000000000000000000000000000000000000000000000000000008152600401610592906110b5565b60405180910390fd5b6105fe83600360003373ffffffffffffffffffffffffffffffffffffffff1673ffffffffffffffffffffffffffffffffffffffff168152602001908152602001600020600085815260200190815260200160002054610c9790919063ffffffff16565b600360003373ffffffffffffffffffffffffffffffffffffffff1673ffffffffffffffffffffffffffffffffffffffff1681526020019081526020016000206000848152602001908152602001600020819055506001600083815260200190815260200160002060010160009054906101000a900473ffffffffffffffffffffffffffffffffffffffff1673ffffffffffffffffffffffffffffffffffffffff1663a9059cbb33856040518363ffffffff1660e01b81526004016106c39291906110d5565b6020604051808303816000875af11580156106e2573d6000803e3d6000fd5b505050506040513d601f19601f820116820180604052508101906107069190611136565b50505050565b80600360003373ffffffffffffffffffffffffffffffffffffffff1673ffffffffffffffffffffffffffffffffffffffff16815260200190815260200160002060007f455448000000000000000000000000000000000000000000000000000000000081526020019081526020016000205410156107bf576040517f08c379a00000000000000000000000000000000000000000000000000000000081526004016107b6906110b5565b60405180910390fd5b61084281600360003373ffffffffffffffffffffffffffffffffffffffff1673ffffffffffffffffffffffffffffffffffffffff16815260200190815260200160002060007f4554480000000000000000000000000000000000000000000000000000000000815260200190815260200160002054610c9790919063ffffffff16565b600360003373ffffffffffffffffffffffffffffffffffffffff1673ffffffffffffffffffffffffffffffffffffffff16815260200190815260200160002060007f455448000000000000000000000000000000000000000000000000000000000081526020019081526020016000208190555050565b80600073ffffffffffffffffffffffffffffffffffffffff166001600083815260200190815260200160002060010160009054906101000a900473ffffffffffffffffffffffffffffffffffffffff1673ffffffffffffffffffffffffffffffffffffffff161415610960576040517f08c379a000000000000000000000000000000000000000000000000000000000815260040161095790611049565b60405180910390fd5b6001600083815260200190815260200160002060010160009054906101000a900473ffffffffffffffffffffffffffffffffffffffff1673ffffffffffffffffffffffffffffffffffffffff166323b872dd3330866040518463ffffffff1660e01b81526004016109d393929190611163565b6020604051808303816000875af11580156109f2573d6000803e3d6000fd5b505050506040513d601f19601f82011682018060405250810190610a169190611136565b50610a7a83600360003373ffffffffffffffffffffffffffffffffffffffff1673ffffffffffffffffffffffffffffffffffffffff168152602001908152602001600020600085815260200190815260200160002054610cad90919063ffffffff16565b600360003373ffffffffffffffffffffffffffffffffffffffff1673ffffffffffffffffffffffffffffffffffffffff168152602001908152602001600020600084815260200190815260200160002081905550505050565b610adb610bcb565b73ffffffffffffffffffffffffffffffffffffffff16610af96102d9565b73ffffffffffffffffffffffffffffffffffffffff1614610b4f576040517f08c379a0000000000000000000000000000000000000000000000000000000008152600401610b4690610fdd565b60405180910390fd5b600073ffffffffffffffffffffffffffffffffffffffff168173ffffffffffffffffffffffffffffffffffffffff161415610bbf576040517f08c379a0000000000000000000000000000000000000000000000000000000008152600401610bb69061120c565b60405180910390fd5b610bc881610bd3565b50565b600033905090565b60008060009054906101000a900473ffffffffffffffffffffffffffffffffffffffff169050816000806101000a81548173ffffffffffffffffffffffffffffffffffffffff021916908373ffffffffffffffffffffffffffffffffffffffff1602179055508173ffffffffffffffffffffffffffffffffffffffff168173ffffffffffffffffffffffffffffffffffffffff167f8be0079c531659141344cd1fd0a4f28419497f9722a3daafe3b4186f6b6457e060405160405180910390a35050565b60008183610ca5919061125b565b905092915050565b60008183610cbb919061128f565b905092915050565b600080fd5b600073ffffffffffffffffffffffffffffffffffffffff82169050919050565b6000610cf382610cc8565b9050919050565b610d0381610ce8565b8114610d0e57600080fd5b50565b600081359050610d2081610cfa565b92915050565b6000819050919050565b610d3981610d26565b8114610d4457600080fd5b50565b600081359050610d5681610d30565b92915050565b60008060408385031215610d7357610d72610cc3565b5b6000610d8185828601610d11565b9250506020610d9285828601610d47565b9150509250929050565b6000819050919050565b610daf81610d9c565b82525050565b6000602082019050610dca6000830184610da6565b92915050565b600060208284031215610de657610de5610cc3565b5b6000610df484828501610d47565b91505092915050565b610e0681610d26565b82525050565b610e1581610ce8565b82525050565b6000604082019050610e306000830185610dfd565b610e3d6020830184610e0c565b9392505050565b6000602082019050610e596000830184610e0c565b92915050565b60008060408385031215610e7657610e75610cc3565b5b6000610e8485828601610d47565b9250506020610e9585828601610d11565b9150509250929050565b610ea881610d9c565b8114610eb357600080fd5b50565b600081359050610ec581610e9f565b92915050565b600060208284031215610ee157610ee0610cc3565b5b6000610eef84828501610eb6565b91505092915050565b6000602082019050610f0d6000830184610dfd565b92915050565b60008060408385031215610f2a57610f29610cc3565b5b6000610f3885828601610eb6565b9250506020610f4985828601610d47565b9150509250929050565b600060208284031215610f6957610f68610cc3565b5b6000610f7784828501610d11565b91505092915050565b600082825260208201905092915050565b7f4f776e61626c653a2063616c6c6572206973206e6f7420746865206f776e6572600082015250565b6000610fc7602083610f80565b9150610fd282610f91565b602082019050919050565b60006020820190508181036000830152610ff681610fba565b9050919050565b7f746f6b656e20646f6573206e6f74206578697374000000000000000000000000600082015250565b6000611033601483610f80565b915061103e82610ffd565b602082019050919050565b6000602082019050818103600083015261106281611026565b9050919050565b7f496e7375666669656e742062616c616e63650000000000000000000000000000600082015250565b600061109f601283610f80565b91506110aa82611069565b602082019050919050565b600060208201905081810360008301526110ce81611092565b9050919050565b60006040820190506110ea6000830185610e0c565b6110f76020830184610da6565b9392505050565b60008115159050919050565b611113816110fe565b811461111e57600080fd5b50565b6000815190506111308161110a565b92915050565b60006020828403121561114c5761114b610cc3565b5b600061115a84828501611121565b91505092915050565b60006060820190506111786000830186610e0c565b6111856020830185610e0c565b6111926040830184610da6565b949350505050565b7f4f776e61626c653a206e6577206f776e657220697320746865207a65726f206160008201527f6464726573730000000000000000000000000000000000000000000000000000602082015250565b60006111f6602683610f80565b91506112018261119a565b604082019050919050565b60006020820190508181036000830152611225816111e9565b9050919050565b7f4e487b7100000000000000000000000000000000000000000000000000000000600052601160045260246000fd5b600061126682610d9c565b915061127183610d9c565b9250828210156112845761128361122c565b5b828203905092915050565b600061129a82610d9c565b91506112a583610d9c565b9250827fffffffffffffffffffffffffffffffffffffffffffffffffffffffffffffffff038211156112da576112d961122c565b5b82820190509291505056fea26469706673582212202c23cbf73bd67c5097e218e1fcc0b4269ab4805ca5987c3aa1d24e25c3ee682064736f6c634300080b0033",
  "immutableReferences": {},
  "source": "// SPDX-License-Identifier: MIT\r\npragma solidity >=0.6.0 <0.9.0;\r\n\r\nimport '../node_modules/@openzeppelin/contracts/token/ERC20/IERC20.sol';\r\nimport '../node_modules/@openzeppelin/contracts/access/Ownable.sol';\r\nimport '../node_modules/@openzeppelin/contracts/utils/math/SafeMath.sol';\r\n\r\ncontract Wallet is Ownable {\r\n    using SafeMath for uint256;\r\n    struct Token {\r\n        bytes32 ticker;\r\n        address tokenAddress;\r\n    }\r\n    \r\n    mapping(bytes32 => Token) public tokenMapping;\r\n    bytes32[] public tokenList;\r\n    mapping(address => mapping(bytes32 => uint256)) public balances;\r\n    \r\n    function addToken(bytes32 ticker,address tokenAddress) onlyOwner external {\r\n        tokenMapping[ticker] = Token(ticker, tokenAddress);\r\n        tokenList.push(ticker);\r\n    }\r\n    \r\n    function deposit(uint amount,  bytes32 ticker) tokenExist(ticker) external {\r\n        IERC20(tokenMapping[ticker].tokenAddress).transferFrom(msg.sender, address(this), amount);\r\n        balances[msg.sender][ticker] = balances[msg.sender][ticker].add(amount);\r\n    }\r\n    \r\n    function withdraw(uint amount, bytes32 ticker) tokenExist(ticker) external {\r\n        require(balances[msg.sender][ticker] >= amount,'Insuffient balance'); \r\n        balances[msg.sender][ticker] = balances[msg.sender][ticker].sub(amount);\r\n        IERC20(tokenMapping[ticker].tokenAddress).transfer(msg.sender, amount);\r\n    }\r\n    // function depositEth() payable external {\r\n    //     balances[msg.sender][bytes32(\"ETH\")] = balances[msg.sender][bytes32(\"ETH\")].add(msg.value);\r\n    // }\r\n    \r\n    function withdrawEth(uint amount) external {\r\n        require(balances[msg.sender][bytes32(\"ETH\")] >= amount,'Insuffient balance'); \r\n        balances[msg.sender][bytes32(\"ETH\")] = balances[msg.sender][bytes32(\"ETH\")].sub(amount);\r\n        //msg.sender.call{value:amount}(\"\");\r\n    }\r\n    \r\n    modifier tokenExist(bytes32 ticker) {\r\n        require(tokenMapping[ticker].tokenAddress != address(0), 'token does not exist');\r\n        _;\r\n    }\r\n}",
  "sourcePath": "C:\\Users\\ivanb\\Documents\\eth-201\\Wallet\\contracts\\wallet.sol",
  "compiler": {
    "name": "solc",
    "version": "0.8.11+commit.d7f03943.Emscripten.clang"
  },
  "schemaVersion": "3.4.4",
  "updatedAt": "2022-02-16T17:02:28.451Z",
  "networkType": "ethereum",
  "devdoc": {
    "kind": "dev",
    "methods": {
      "owner()": {
        "details": "Returns the address of the current owner."
      },
      "renounceOwnership()": {
        "details": "Leaves the contract without owner. It will not be possible to call `onlyOwner` functions anymore. Can only be called by the current owner. NOTE: Renouncing ownership will leave the contract without an owner, thereby removing any functionality that is only available to the owner."
      },
      "transferOwnership(address)": {
        "details": "Transfers ownership of the contract to a new account (`newOwner`). Can only be called by the current owner."
      }
    },
    "version": 1
  },
  "userdoc": {
    "kind": "user",
    "methods": {},
    "version": 1
  }
}